:020000040800F2
:10000000000002206921000845090008470900088E
:10001000490900084B0900084D09000800000000CC
:100020000000000000000000000000004F09000870
:100030005109000800000000530900085509000894
:10004000B9210008B9210008B9210008B921000828
:10005000B9210008B9210008B9210008B921000818
:10006000B9210008B9210008B9210008B921000808
:10007000B9210008B9210008B9210008B9210008F8
:10008000B9210008B9210008B9210008B9210008E8
:100090005D090008B9210008B9210008B92100084C
:1000A000B9210008B9210008B9210008B9210008C8
:1000B000B9210008B9210008B9210008B9210008B8
:1000C000B9210008B9210008B9210008B9210008A8
:1000D000B9210008B9210008B9210008B921000898
:1000E000B9210008B9210008B9210008B921000888
:1000F000B9210008B9210008B9210008B921000878
:10010000B9210008B9210008B9210008B921000867
:10011000B9210008B9210008B9210008B921000857
:10012000B9210008B9210008B9210008B921000847
:10013000B92100080000000000000000B9210008FB
:10014000B9210008B9210008B9210008B921000827
:10015000B9210008B9210008B9210008B921000817
:10016000B9210008B9210008B9210008B921000807
:10017000B9210008B9210008B921000800000000D9
:1001800000000000B921000800000000000000008D
:10019000B92100080000000000000000B92100089B
:1001A000000000000000000000000000B92100086D
:1001B000B9210008B9210008B9210008B9210008B7
:0401C000B921000859
:1001D00010B5054C237833B9044B13B10448AFF381
:1001E00000800123237010BD80000020000000006B
:1001F0009C31000808B5034B1BB103490348AFF31A
:10020000008008BD00000000840000209C31000830
:1002100001F0FF01102A2BDB10F0070F08D010F8B7
:10022000013B013A8B422DD010F0070F42B3F6D1BB
:10023000F0B441EA012141EA014122F007047FF0D4
:1002400000070023F0E80256083C85EA010586EA2B
:10025000010685FA47F5A3FA87F586FA47F6A5FA67
:1002600087F68EB9EED1F0BC01F0FF0102F0070273
:1002700032B110F8013B013A83EA010313B1F8D11E
:100280000020704701387047002D06BF35460338FF
:10029000073815F0010F07D1013015F4807F02BF38
:1002A000013015F4C03F0130F0BC0138704700BF89
:1002B00053B94AB9002908BF00281CBF4FF0FF31CD
:1002C0004FF0FF3000F088B9ADF1080C6DE904CEB5
:1002D00000F006F8DDF804E0DDE9022304B0704721
:1002E0002DE9F047089D0F4604468C46002B48D167
:1002F0008A42164661D9B2FA82F34BB1C3F12002A9
:1003000001FA03FC20FA02F29E4042EA0C0C9C40E7
:100310004FEA164EB7B2BCFBFEF1220C0EFB11CC1D
:1003200042EA0C4201FB07F0904209D9B21801F1F0
:10033000FF3C80F0EE80904240F2EB800239324484
:10034000121AA4B2B2FBFEF00EFB102244EA0244E1
:1003500000FB07F7A74209D9341900F1FF3280F0FA
:10036000DA80A74240F2D7803444023840EA0140A4
:10037000E41B00211DB1DC400023C5E90043BDE8BA
:10038000F0878B4206D90DB1C5E90001002108466E
:10039000BDE8F087B3FA83F1002948D1BB4202D30C
:1003A000824200F20781841A67EB0302012094461F
:1003B000002DE4D0C5E9004CE1E7002A00F092806E
:1003C000B2FA82F3002B40F0A8808A1A4FEA164E48
:1003D0001FFA86FC0121200CB2FBFEF70EFB172250
:1003E00040EA02420CFB07F0904207D9B21807F12D
:1003F000FF3802D2904200F2E2804746121AA4B2BD
:10040000B2FBFEF00EFB102244EA02440CFB00FC9F
:10041000A44507D9341900F1FF3202D2A44500F2F5
:10042000CB801046A4EB0C0440EA0740A2E7C1F1E0
:1004300020068B4022FA06FC4CEA030C07FA01F472
:1004400020FA06F3F7404FEA1C49234300FA01F86B
:100450001FFA8CFEB7FBF9F01C0C09FB107744EA7D
:10046000074400FB0EF7A74202FA01F20AD91CEB7F
:10047000040400F1FF3A80F09B80A74240F298808C
:1004800002386444E41B9FB2B4FBF9F309FB134444
:1004900047EA044403FB0EFEA64509D91CEB0404FD
:1004A00003F1FF3780F08280A6457FD9023B644488
:1004B00043EA0040A4EB0E04A0FB02E7BC427346F3
:1004C000B94663D360D05DB1B8EB030264EB0904B5
:1004D00004FA06F622FA01F31E43CC40C5E9006493
:1004E00000214CE76208480842EAC1710B0C43EA5C
:1004F00000438AB242EA0342B3FBF6F1E407B44692
:100500003746B6461F23B0FBF6F0D21B41EA004146
:1005100061E7614614E7104628E7C3F1200120FA9D
:1005200001F29E4027FA01F19F403A434FEA164EEE
:100530001FFA86FCB1FBFEF70EFB1710110C41EA07
:10054000004107FB0CF8884504FA03F43AD9711806
:1005500007F1FF3001D288451FD8A1EB0801B1FB9C
:10056000FEF808FB0CF70EFB181192B242EA0142AA
:10057000BA422FD2B21808F1FF31C6D2BA42C4D261
:10058000A8F102013244C0E7F0459CD2BEEB020361
:1005900067EB0C070138B94695E7A6EB080841441C
:1005A000B81EB1FBFEF808FB0CF7DCE73B467FE723
:1005B000504667E70846FBE63444023832E7023F1C
:1005C00032441BE7A1EB08013846B1FBFEF808FBFB
:1005D0000CF7C8E7414698E7704700BF70B58AB08E
:1005E00005AD002405940694079408940994019499
:1005F000224B1A6B42F004021A631A6B02F00402D7
:100600000192019A02941A6B42F080021A631A6BEB
:1006100002F080020292029A03941A6B42F00102E5
:100620001A631A6B02F001020392039A04941A6B84
:1006300042F002021A631B6B03F002030493049B53
:100640000F4E22462021304601F064F84FF400534B
:1006500005934FF40413069307942946094800F0C4
:1006600069FF2023059301230693079408942946E4
:10067000304600F05FFF0AB070BD00BF0038024096
:10068000000002400008024000B58BB001AB03AA95
:10069000002101F06DFBA8B90399A1F20121032902
:1006A00010D8002309E003F128026A4412F8240C50
:1006B000054A02EBC102D0540133072BF3DD034B93
:1006C00001225A540BB000BDA00000209C00002065
:1006D00010B514464FF0FF3392B2024800F005FB0C
:1006E000204610BDC000002072B6FEE710B584B0F1
:1006F000002401940294C0F307248DF804408DF87F
:100700000500C1F307208DF806008DF80710C2F32D
:1007100007218DF808108DF80920C3F307228DF802
:100720000A208DF80B30084801F009FB08B904B025
:1007300010BD03AB01AA0549034801F08BFA00285C
:10074000F5D0FFF7D1FF00BF080100200000002016
:1007500008B50A480A4B03604FF4E13343600023B5
:100760008360C36003610C2242618361C36100F056
:100770008CFA00B908BDFFF7B7FF00BFC00000202A
:100780000044004000B58BB01648174B03600323AC
:10079000436000238360C3604FF4102202614FF472
:1007A000001242610376437683760122C276037794
:1007B000437701F0DFF890B900230093019302938F
:1007C000039307930493059306930E230993012340
:1007D00008936946034801F073F90BB000BDFFF7B9
:1007E00083FF00BF080100200064004010B594B0F2
:1007F00007AC34220021204601F0B6FE002302930C
:10080000039304930593069300931F4A116C41F0E0
:1008100080511164126C02F080520092009A019390
:100820001A490A6822F4404242F480420A600A6887
:1008300002F440420192019A0222079201210A9198
:1008400010210B910D920E930F914FF4A8731093FA
:100850000423119312921392204600F049FC78B9B8
:100860000F23029302210391002304934FF480523B
:100870000592069302A800F09DFA18B914B010BDB5
:10088000FFF732FFFFF730FF0038024000700040F2
:1008900010B582B0254B1B680021986801F064FDFB
:1008A00000F0DEFFFFF7A2FFFFF798FEFFF750FF13
:1008B000FFF768FF1E4C204601F09EF902212046FA
:1008C00001F00BFB28E0611C1A4801F03BFD0134EC
:1008D000032C1EDC184B1B5D002BF4D072B617499D
:1008E00011F83420120212B201EBC4014B781A4302
:1008F0008B781B021BB2C87803430879000200B250
:100900004979014362B60091611C0D4801F01AFD5E
:10091000DDE70A2000F0D0FF42F2107300221146FA
:100920001046FFF7E3FE0024D2E700BF30000020AE
:1009300008010020B43100089C000020A000002025
:10094000C4310008FEE7FEE7FEE7FEE7FEE770477A
:100950007047704708B500F09DFF08BD08B5024814
:1009600001F0D9FA08BD00BF0801002000B583B02E
:10097000002100910C4B5A6C42F480425A645A6C2C
:1009800002F480420092009A01911A6C42F0805267
:100990001A641B6C03F080530193019B072000F045
:1009A000FFFE03B000BD00BF0038024010B588B0A4
:1009B0000023039304930593069307930268194B4E
:1009C0009A4201D008B010BD0024019403F5EA3327
:1009D0001A6C42F000721A641A6C02F000720192F2
:1009E000019A02941A6B42F001021A631B6B03F026
:1009F00001030293029B4FF4C05303930223049319
:100A0000032306930923079303A9074800F092FDE7
:100A100022462146142000F0D5FE142000F0E2FE0C
:100A2000D0E700BF006400400000024000B589B07C
:100A30000023039304930593069307930268144BD2
:100A40009A4201D009B000BD0021019103F5FA33AB
:100A50001A6C42F400321A641A6C02F400320192E9
:100A6000019A02911A6B42F001021A631B6B03F0A8
:100A700001030293029B0C23039302230493032399
:100A800006930723079303A9024800F053FDD9E713
:100A90000044004000000240026802F10C0353E8E9
:100AA000003F23F490730C3242E800310029F3D167
:100AB000026802F1140353E8003F23F001031432EB
:100AC00042E800310029F3D1036B012B05D020232C
:100AD00080F84230002303637047026802F10C0380
:100AE00053E8003F23F010030C3242E800310029A4
:100AF000F3D1ECE710B504460268136923F44053C0
:100B0000C1680B431361836802691A4343691A433E
:100B1000C3691A430168CB6823F4164323F00C031E
:100B20001343CB600268536923F4407381690B431C
:100B300053610368314A934206D002F580629342C2
:100B400002D000F0EDF901E000F0FAF9E369B3F545
:100B5000004F29D00021031849411B1841F1000121
:100B6000C90041EA5371DB00181863684FEA830239
:100B70004FEA937341F10001FFF79AFB204AA2FB71
:100B800000314909642303FB11031B013233A2FB2B
:100B900003235B0903F0F00202EB011203F00F03E1
:100BA000216813448B6010BD0023021843EB03013E
:100BB000121841F10001C90041EA5271D200101827
:100BC00041F10001626892185B41FFF771FB0C4A2A
:100BD000A2FB00314909642303FB1103DB0032331C
:100BE000A2FB03235B095A0002F4F87202EB011224
:100BF00003F00703216813448B60D4E70010014021
:100C00001F85EB512DE9F04383B005460E4617468C
:100C10009946DDF828802B681C6836EA04040CBF6E
:100C200001240024BC4228D1B8F1FF3FF3D000F0EA
:100C30003DFEA0EB0900404523D8B8F1000F22D0BB
:100C40002B68DA6812F0040FE5D0802EE3D0402E36
:100C5000E1D01A6812F0080FDDD0002401941A6860
:100C600001925B680193019B2846FFF715FF08235B
:100C70006B6485F84040012000E0002003B0BDE82F
:100C8000F0830320FAE70320F8E760B310B50446C9
:100C900090F8413013B3242384F841302268D3689C
:100CA00023F40053D3602046FFF724FF2268136922
:100CB00023F4904313612268536923F02A0353619C
:100CC0002268D36843F40053D3600020606420237B
:100CD00084F8413084F84230606310BD80F84030C1
:100CE000FFF7A4FED7E7012070472DE9F04182B05D
:100CF0001E4690F84130202B56D104460D469046B2
:100D0000002955D00AB901204FE000234364212374
:100D100080F8413000F0CAFD0746A4F82480A4F80A
:100D20002680A368B3F5805F02D04FF0000814E07E
:100D300023692BB34FF000080FE0202384F84130E3
:100D4000032032E038F8023B2268C3F30803536003
:100D5000E28C92B2013A92B2E284E38C9BB293B1FC
:100D600000963B46002280212046FFF74BFF0028DB
:100D7000E3D1002DE6D015F8012B23685A60E7E790
:100D8000A8460025E9E700963B4600224021204680
:100D9000FFF738FF18B9202384F8413005E02023FD
:100DA00084F84130032000E0022002B0BDE8F08169
:100DB0000120FAE7002800F09B8070B50D4604463C
:100DC0004F4B1B6803F00F038B4208D2CBB24C4A47
:100DD0001370136803F00F038B4240F08B8023687D
:100DE00013F0020F17D013F0040F04D0454A936894
:100DF00043F4E0539360236813F0080F04D0414A92
:100E0000936843F4604393603E4A936823F0F00391
:100E1000A1680B439360236813F0010F32D063681D
:100E2000012B21D09A1E012A25D9364A126812F0C8
:100E3000020F61D033498A6822F0030213438B60AA
:100E400000F034FD06462F4B9B6803F00C036268EC
:100E5000B3EB820F16D000F029FD801B41F28833DE
:100E60009842F0D9032042E0264A126812F4003F6B
:100E7000E0D101203BE0234A126812F0007FD9D173
:100E8000012034E01E4B1B6803F00F03AB4207D96F
:100E9000EAB21B4B1A701B6803F00F03AB422DD153
:100EA000236813F0040F06D0164A936823F4E05326
:100EB000E1680B439360236813F0080F07D0114AD1
:100EC000936823F46043216943EAC103936000F00F
:100ED00047F80C4B9B68C3F303130B4AD35CD84011
:100EE0000A4B18600A4B186800F094FC002070BD93
:100EF000012070470120FAE70120F8E70120F6E71A
:100F0000003C024000380240F03100082000002080
:100F10001C000020014B1868704700BF2000002013
:100F200008B5FFF7F7FF044B9B68C3F38223034A1E
:100F3000D35CD84008BD00BF00380240E83100084B
:100F400008B5FFF7E7FF044B9B68C3F34233034A3E
:100F5000D35CD84008BD00BF00380240E83100082B
:100F600008B5604B9B6803F00C03082B06D00C2BD4
:100F70005ED0042B40F0B4805B4833E0594B5A6894
:100F800002F03F025B6813F4800F2CD0554B586879
:100F9000C0F388104FEA401CBCEB000C6EEB0E0E49
:100FA0004FEA8E1343EA9C634FEA8C11B1EB0C01BC
:100FB00063EB0E03DB0043EA5173C90011EB000C35
:100FC00043F10003590200234FEA4C2041EADC516F
:100FD000FFF76EF9434B5B68C3F3014301335B00DA
:100FE000B0FBF3F008BD3F4B5868C0F388104FEAE0
:100FF000401CBCEB000C6EEB0E0E4FEA8E1343EA66
:101000009C634FEA8C11B1EB0C0163EB0E03DB0028
:1010100043EA5173C90011EB000C43F1000399023C
:1010200000234FEA8C2041EA9C51FFF741F9D1E7B8
:101030002C4B5A6802F03F025B6813F4800F2AD0F1
:10104000284B5868C0F388104FEA401CBCEB000CDA
:101050006EEB0E0E4FEA8E1343EA9C634FEA8C113F
:10106000B1EB0C0163EB0E03DB0043EA5173C900E3
:1010700011EB000C43F10003590200234FEA4C200E
:1010800041EADC51FFF714F9164B5B68C3F30273B6
:10109000B0FBF3F0A6E7134B5868C0F388104FEA93
:1010A000401CBCEB000C6EEB0E0E4FEA8E1343EAB5
:1010B0009C634FEA8C11B1EB0C0163EB0E03DB0078
:1010C00043EA5173C90011EB000C43F1000399028C
:1010D00000234FEA8C2041EA9C51FFF7E9F8D3E75F
:1010E00002487FE70038024000127A000024F40032
:1010F000002800F0018270B582B00446036813F046
:10110000010F41D0994B9B6803F00C03042B32D0A4
:10111000964B9B6803F00C03082B27D0934B9B68DE
:1011200003F00C030C2B59D06368B3F5803F5BD000
:10113000B3F5A02F5ED08D4B1A6822F480321A606E
:101140001A6822F480221A606368002B5CD000F0D9
:10115000ADFB0546854B1B6813F4003F14D100F02E
:10116000A5FB401B6428F5D90320CCE17F4B5B68CD
:1011700013F4800FD2D07D4B1B6813F4003F03D0D3
:101180006368002B00F0BA81236813F0020F60D06F
:10119000764B9B6813F00C0F4AD0744B9B6803F09E
:1011A0000C03082B3FD0714B9B6803F00C030C2BF6
:1011B00069D0E368002B75D06D4B01221A6000F0F6
:1011C00075FB0546694B1B6813F0020F61D100F0F7
:1011D0006DFB401B0228F5D9032094E1634B5B684B
:1011E00013F4800FA0D0C6E7604A136843F480333D
:1011F0001360A9E75D4B1A6842F480221A601A68EE
:1012000042F480321A609FE700F050FB0546574BCE
:101210001B6813F4003FB7D000F048FB401B642864
:10122000F5D903206FE1514B5B6813F4800FBAD1FD
:101230004E4B1B6813F0020F03D0E368012B40F004
:101240005F814A4A136823F0F803216943EAC10326
:101250001360236813F0080F49D06369002B33D063
:10126000434B0122C3F8802E00F020FB05463F4B84
:101270005B6F13F0020F3AD100F018FB401B0228FD
:10128000F5D903203FE1394B5B6813F4800F90D10F
:10129000CEE7364A136823F0F803216943EAC10315
:1012A0001360D6E7324B00221A6000F0FFFA0546C1
:1012B0002E4B1B6813F0020FCBD000F0F7FA401B47
:1012C0000228F5D903201EE1294B0022C3F8802E05
:1012D00000F0ECFA0546254B5B6F13F0020F06D0C9
:1012E00000F0E4FA401B0228F5D903200BE1236843
:1012F00013F0040F76D01D4B1B6C13F0805F33D1BD
:1013000000230193194B1A6C42F080521A641B6C33
:1013100003F080530193019B0125164B1B6813F4C6
:10132000807F29D0A368012B3AD0052B3ED00F4BEC
:101330001A6F22F001021A671A6F22F004021A676C
:10134000A368002B3CD000F0B1FA0646074B1B6F98
:1013500013F0020F45D100F0A9FA801B41F2883347
:101360009842F3D90320CEE00025D6E700380240AA
:1013700000004742007000406B4A136843F48073DA
:10138000136000F093FA0646674B1B6813F4807FE6
:10139000C8D100F08BFA801B0228F5D90320B2E0F7
:1013A000624A136F43F001031367C9E75F4B1A6F7B
:1013B00042F004021A671A6F42F001021A67BFE78F
:1013C00000F074FA0646594B1B6F13F0020F08D059
:1013D00000F06CFA801B41F288339842F3D9032065
:1013E00091E0EDB9A369002B00F08C804F4A926820
:1013F00002F00C02082A54D0022B17D04C4B0022CA
:101400001A6600F053FA0446484B1B6813F0007F3D
:1014100045D000F04BFA001B0228F5D9032072E0FA
:10142000424A136C23F080531364DBE7404B0022E5
:101430001A6600F03BFA05463C4B1B6813F0007F30
:1014400006D000F033FA401B0228F5D903205AE0F9
:10145000E369226A1343626A43EA8213A26A52086A
:10146000013A43EA0243E26A43EA0263226B43EA37
:1014700002732E4A53602E4B01221A6600F016FAB0
:1014800004462A4B1B6813F0007F06D100F00EFAC9
:10149000001B0228F5D9032035E0002033E00020AE
:1014A00031E0012B31D0214B5B6803F48001E2690C
:1014B00091422CD103F03F02216A8A4229D1616A0C
:1014C00047F6C0721A40B2EB811F24D103F44031B9
:1014D000A26A5208013AB1EB024F1ED103F07062CA
:1014E000E16AB2EB016F1AD103F0E043226BB3EB78
:1014F000027F16D1002006E001207047012002E0A3
:10150000012000E0002002B070BD0120FBE70120B7
:10151000F9E70120F7E70120F5E70120F3E70120D3
:10152000F1E70120EFE700BF007000400038024003
:101530000000474200230F2B00F2E38070B582B019
:1015400065E085684FEA430E032404FA0EF425EAA9
:101550000405CC6804FA0EF42C438460446824EA41
:1015600002044A68C2F300129A40224342605CE0DF
:10157000DC08083450F8242003F00705AD004FF0D4
:101580000F0E0EFA05FE22EA0E0E0A69AA4042EA82
:101590000E0240F824205CE0062200E0002202FA5D
:1015A0000EF22A430234574D45F82420564A9468D7
:1015B0006FEA0C0224EA0C054E6816F4801F01D075
:1015C0004CEA0405504CA560E46802EA04054E6844
:1015D00016F4001F01D04CEA04054B4CE56064682A
:1015E00002EA04054E6816F4003F01D04CEA0405F7
:1015F000454C6560246822404D6815F4803F01D059
:101600004CEA0402404C226001330F2B77D80122B0
:101610009A400C6804EA020C32EA0404F4D14C68E3
:1016200004F00304013C012C8BD94A6802F0030248
:10163000032A09D0C4685D000322AA4024EA0204F8
:101640008A68AA402243C2604A6802F00302022A62
:101650008ED004684FEA430E032202FA0EF224EA07
:1016600002044A6802F0030202FA0EF22243026008
:101670004A6812F4403FC7D000220192234A546CBA
:1016800044F480445464526C02F480420192019A02
:101690009C08A51C1B4A52F8255003F0030E4FEA84
:1016A0008E0E0F2202FA0EF225EA0205184A904227
:1016B0003FF474AF02F58062904216D002F580626A
:1016C000904214D002F58062904212D002F58062FE
:1016D000904210D002F5806290420ED002F58062F6
:1016E00090423FF459AF072259E7012257E70222FF
:1016F00055E7032253E7042251E705224FE702B0E2
:1017000070BD704700380140003C01400038024085
:10171000000002400AB1816170470904816170478D
:10172000002807DB00F01F02400901239340024A12
:1017300042F82030704700BF00E100E0002808DBDD
:101740000901C9B200F1604000F5614080F8001362
:10175000704700F00F000901C9B2014B19547047DE
:1017600014ED00E000B500F00700C0F1070CBCF17B
:10177000040F28BF4FF0040C031D062B0ED9C31E07
:101780004FF0FF3E0EFA0CF021EA000199400EFAEC
:1017900003FE22EA0E0241EA020000BD0023EFE749
:1017A000074AD36823F4E0631B041B0C000200F417
:1017B000E060034343F0BF6343F40033D3607047FA
:1017C00000ED00E010B50446054BD868C0F30220D8
:1017D000FFF7C8FF01462046FFF7B0FF10BD00BF6E
:1017E00000ED00E008B5FFF79BFF08BD0138B0F140
:1017F000807F0BD24FF0E0235861054AF02182F838
:1018000023100020986107221A6170470120704759
:1018100000ED00E010B504460E4B18680E4B1A7828
:101820004FF47A73B3FBF2F3B0FBF3F0FFF7DEFF94
:1018300068B90F2C01D901200AE0002221464FF09F
:10184000FF30FFF7BFFF054B1C60002000E00120C8
:1018500010BD00BF20000020180000201C00002048
:1018600008B50B4B1A6842F400721A601A6842F409
:1018700080621A601A6842F480721A600320FFF7CF
:101880008FFF0020FFF7C6FFFFF770F8002008BDAC
:10189000003C0240034A1168034B1B780B44136061
:1018A000704700BF3001002018000020014B18686D
:1018B000704700BF3001002038B50446FFF7F6FF3F
:1018C0000546B4F1FF3F02D0044B1B781C44FFF7E0
:1018D000EDFF401BA042FAD338BD00BF1800002026
:1018E000034AD2F8883043F47003C2F88830704756
:1018F00000ED00E010B503460C4A0D490D480068A4
:1019000040B10C4800680344521A934206D8094A71
:10191000136010BD0748084C0460F2E700F072FE47
:101920000C2303604FF0FF30F3E700BF00000220FC
:1019300000040000340100208802002070B50C462D
:101940001646002506E0AFF30080214601F8010BA2
:1019500001350C46B542F6DB304670BD4FF0FF3026
:1019600070474FF400534B600020704701207047D0
:1019700000207047002800F0A18038B5044690F898
:101980002030D3B12268136843F001031360FFF7DE
:101990008DFF054623685A6812F0010F10D1FFF73A
:1019A00085FF401B0A28F5D9636A43F4003363625C
:1019B000052384F82030012038BDFEF7F7FFE1E76A
:1019C0001A6822F002021A60FFF770FF05462368CA
:1019D0005A6812F0020F0DD0FFF768FF401B0A286B
:1019E000F5D9636A43F400336362052384F8203039
:1019F0000120E1E7227E012A3DD01A6822F0800210
:101A00001A60637E012B3BD02268136823F04003E9
:101A10001360A37E012B39D02268136823F02003C2
:101A20001360E37E012B37D02268136843F0100364
:101A30001360237F012B35D02268136823F008033D
:101A40001360637F012B33D02268136823F00403F3
:101A50001360A368E2681343226913436269134366
:101A60006268013A21681343CB6100206062012360
:101A700084F82030A0E71A6842F080021A60C0E7BC
:101A80002268136843F040031360C2E722681368BA
:101A900043F020031360C4E72268136823F01003A7
:101AA0001360C6E72268136843F008031360C8E7B1
:101AB0002268136843F004031360CAE701207047EB
:101AC00090F82030013BDBB2012B05D9436A43F487
:101AD000802343620120704730B5464BD3F8002283
:101AE00042F00102C3F80022D3F8002222F47C5213
:101AF000C3F80022D3F80022486A42EA0022C3F861
:101B000000224A6902F01F02012000FA02F2D3F813
:101B10001C026FEA020C20EA0200C3F81C02CB6927
:101B2000C3B9344BD3F80C020CEA0000C3F80C0222
:101B30008C884869CD6844EA0544483043F8304011
:101B40008C68088840EA04404C6904F1480E03EBB5
:101B5000CE035860CB69012B1ED08B69002B33D18B
:101B60002448D0F804320CEA0303C0F804320B69AD
:101B70008BBB2048D0F814320CEA0303C0F81432AF
:101B80000B6A012B2ED01B4AD2F8003223F001033E
:101B9000C2F80032002030BD164BD3F80C021043BF
:101BA000C3F80C028C8848690D6844EA0544483043
:101BB00043F8304088894C698D6840EA05404834D4
:101BC00003EBC4035860C8E70A48D0F80432134353
:101BD000C0F80432CBE70748D0F814321343C0F8FA
:101BE0001432CDE70349D1F81C321343C1F81C323B
:101BF000C9E700BF0064004070B5044690F820308B
:101C0000012B06D0436A43F4002343620126304689
:101C100070BDDEB2022380F820300268136823F022
:101C200001031360FFF742FE054623685B6813F06B
:101C3000010F0CD0FFF73AFE431B0A2BF5D9636A5C
:101C400043F400336362052384F82030DFE7002685
:101C50006662DCE730B590F820C00468A4680CF137
:101C6000FF3C5FFA8CFCBCF1010F62D814F0E05F1E
:101C700059D0C4F3016C012404FA0CF41C608B6885
:101C8000002B3DD10D68CB68046843EA45550CF143
:101C900018031B01E55003680C690CF1180E03EBE7
:101CA0000E135C600B7D012B35D0D17993791B0429
:101CB00043EA0163517943EA01231479016823431C
:101CC00001EB0C11C1F88C31D17893781B0443EAF5
:101CD0000163517843EA0123117802680B4302EB58
:101CE0000C12C2F8883102680CF1180C4FEA0C1C77
:101CF00052F80C3043F0010342F80C3000201DE094
:101D00004C6843EAC403CC6823430CF11804240153
:101D100005682B51BFE7036803EB0E13596841F4C4
:101D200080715960C1E7436A43F4001343620120A4
:101D300004E0436A43F480234362012030BD90F8FD
:101D40002030013BDBB2012B01D900207047036832
:101D5000986810F0806000D001209A6812F0006F3F
:101D600000D001309B6813F0805FEFD001307047E6
:101D700090F820C00CF1FF3C5FFA8CFCBCF1010F25
:101D800000F2A58030B451B90468E46814F0030F80
:101D900010D1436A43F40013436201207EE00468DB
:101DA000246914F0030F05D1436A43F4001343621E
:101DB000012073E0056801F11B0424012C5904F093
:101DC00004049460002C6BD1056801F11B0424010C
:101DD0002C59640D1460046801F11B0C4FEA0C1CB3
:101DE00054F80C4004F00204D4600468A444DCF805
:101DF000045015F0080F5BD008241461046801F149
:101E00001B0C04EB0C146468C4F30724946104688D
:101E100004EB0C146468240C5461026802EB011298
:101E2000D2F8B8211A70026802EB0112D2F8B82178
:101E3000C2F307225A70026802EB0112D2F8B821ED
:101E4000C2F307429A70026802EB0112D2F8B8217D
:101E5000120EDA70026802EB0112D2F8BC211A717C
:101E6000026802EB0112D2F8BC21C2F307225A71B8
:101E7000026802EB0112D2F8BC21C2F307429A7148
:101E8000026802EB0112D2F8BC21120EDA71C1B95C
:101E90000268D36843F02003D360002030BC704751
:101EA000056801F11B0424012C59E408546092E7F1
:101EB00001F11B0504EB0514646804F00F041461C0
:101EC0009CE70268136943F020031361E5E7436A66
:101ED00043F4802343620120704790F82030013B97
:101EE000DBB2012B05D9436A43F48023436201200E
:101EF0007047026853690B43536100207047704775
:101F00007047704770477047704770477047704719
:101F10007047704770472DE9F84F054603685C69C4
:101F2000D3F804809F68D3F80CA0D3F81090D3F8AE
:101F300018B014F001063BD017F0010616D00122AC
:101F40009A6017F0020F08D117F0040F0CD117F0A8
:101F5000080606D04FF4805608E0FFF7D0FF0026B1
:101F600004E0FFF7CFFF01E04FF4006617F4807F35
:101F70000DD02B684FF480729A6017F4007F40F008
:101F8000968017F4806F00F0968046F4005617F4A0
:101F9000803F0DD02B684FF480329A6017F4003FD9
:101FA00040F0938017F4802F00F0938046F40046B1
:101FB00014F0080F07D01AF0100F04D046F4007682
:101FC0002B681022DA6014F0040F03D01AF0080F07
:101FD00040F0898014F0020F05D02B68DB6813F005
:101FE000030F40F0878014F0400F07D019F0100F56
:101FF00004D046F480662B6810221A6114F0200F7A
:1020000002D019F0080F79D114F0100F04D02B680A
:102010001B6913F0030F78D114F4003F02D018F0BD
:10202000100F76D114F4803F02D018F0080F77D14A
:1020300014F4004F37D018F0040F31D014F4807F1F
:1020400004D01BF0010F01D046F0010614F4007F0C
:1020500004D01BF0020F01D046F0020614F4806F8A
:1020600004D01BF0040F01D046F0040614F4006FF6
:1020700016D01BF0700B13D0BBF1400F66D056D8B2
:10208000BBF1200F5CD0BBF1300F5CD0BBF1100F67
:1020900001D146F008062A68936923F07003936122
:1020A0002B6804225A60002E56D1BDE8F88F2846CE
:1020B000FFF726FF6BE717F4006F02D046F4804667
:1020C00065E72846FFF71FFF61E72846FFF719FF7E
:1020D0006EE717F4002F02D046F4803668E72846F2
:1020E000FFF712FF64E72B680822DA602846FFF743
:1020F0000CFF6FE72846FEF7C7FA74E72B68082243
:102100001A612846FFF703FF7EE72846FFF7FEFE29
:1021100082E72B6810225A602846FFF7F9FE81E714
:102120002B6808225A602846FFF7F3FE80E7BBF1D0
:10213000500F0ED0BBF1600FADD146F48076AAE708
:1021400046F01006A7E746F02006A4E746F0400652
:10215000A1E746F080069EE76B6A33436B62284630
:10216000FFF7D8FEA1E70000DFF834D0FFF7B8FB97
:102170000C480D490D4A002302E0D458C4500433E2
:10218000C4188C42F9D30A4A0A4C002301E01360B8
:102190000432A242FBD300F03BFAFEF779FB704712
:1021A00000000220000000208000002044320008CF
:1021B0008000002084020020FEE70000002310B50C
:1021C0000446C0E90033C0E904338360818143667B
:1021D000C2818361194608225C3000F0C5F90D4BBD
:1021E00063620D4BA3620D4BE3620D4B23630D4BFA
:1021F00024629C4206D003F16802944202D0D0339C
:102200009C4205D104F15800BDE8104000F024BA0A
:1022100010BD00BFE1240008032500083B2500088D
:102220006125000838010020024A0349034800F0F4
:102230006BB800BF24000020092F000834000020E4
:1022400041680C4B994210B5044601D000F05CFE89
:10225000A168094B994202D0204600F055FEE16882
:10226000064B994204D02046BDE8104000F04CBE19
:1022700010BD00BF38010020A0010020080200208E
:102280000C4B0D4A0D4810B504211A600022FFF7CF
:1022900095FF0A4B01221C46092103F16800FFF754
:1022A0008DFF04F1D0000222BDE810401221FFF79B
:1022B00085BF00BF700200202922000838010020DD
:1022C000014800F0CAB900BF79020020014800F0BF
:1022D000C5B900BF7902002010B50446FFF7F0FF32
:1022E000236A1BB1BDE81040FFF7F0BF044B236227
:1022F000044B1B68002BF5D1FFF7C2FFF2E700BFCC
:1023000041220008700200202DE9F8430746884664
:1023100014460026D4E90195B9F1010905D52468D0
:10232000002CF7D13046BDE8F883AB89012B07D9E3
:10233000B5F90E30013303D029463846C04706436D
:102340006835E9E70FB407B5064904AB086853F8E8
:10235000042B8168019300F0ADFA03B05DF804EB43
:1023600004B0704730000020B1FA81F252094FF4F6
:102370008063520000F000B82DE9F7431D46574B2B
:102380001F6804460E46904627B13B6A13B938468B
:10239000FFF7A2FFB8F1020F06D0B8F1010F00F26B
:1023A0009A80002DC0F29780636ED90705D4A38967
:1023B0009A0502D4A06D00F050F92146384600F08D
:1023C000A3FD616B41B104F14403994202D0384648
:1023D00000F046F9002363630023A3616360A389CF
:1023E0001B0603D52169384600F03AF9A38923F486
:1023F0004A6323F00303B8F1020FA38161D001AB5C
:102400006A462146384600F0A7FDA3891843A081FB
:102410002DBB009D284600F06DF90646002852D1DC
:10242000DDF80090A94540D14FF0FF35B4F90C30EC
:1024300043F00202A2810022A26004F1470222605E
:10244000226101226261626ED60704D4980502D42B
:10245000A06D00F003F9284603B0BDE8F083002E1C
:10246000D8D03B6A13B93846FFF736FFB8F1010FF1
:1024700008BFA389266004BF43F00103A381B4F918
:102480000C3013F00802C4E904651ED0D90741BF1F
:1024900000226D42A260A56158BFA560626ED2079E
:1024A00001D49B0513D50025D5E7484600F022F955
:1024B00006460028B8D0A38943F08003A3814D4687
:1024C000CFE70025B2E7A946F5E7A260E6E7A06DF1
:1024D00000F0C4F8E7E74FF0FF35BCE7300000201C
:1024E00010B50C46B1F90E1000F068F80028ABBF2B
:1024F000636DA3891B1823F48053ACBF6365A3816C
:1025000010BD2DE9F0411F468B89DB0505460C46C1
:10251000164605D5B1F90E100223002200F03CF852
:10252000A389B4F90E1023F48053A38132463B46AD
:102530002846BDE8F04100F053B810B50C46B1F99B
:102540000E1000F029F8B4F90C30421C0BBF23F434
:10255000805343F48053A381A38118BF606510BDED
:10256000B1F90E1000F008B802440346934200D1BE
:10257000704703F8011BF9E738B5064D0023044600
:1025800008462B60FFF7EAF9431C02D12B6803B120
:10259000236038BD7402002038B5074D0446084654
:1025A000114600222A601A46FFF7E2F9431C02D1C5
:1025B0002B6803B1236038BD7402002038B5074D85
:1025C00004460846114600222A601A46FFF7B6F96B
:1025D000431C02D12B6803B1236038BD7402002074
:1025E00038B5074D04460846114600222A601A46AF
:1025F000FEF76EF8431C02D12B6803B1236038BD8F
:1026000074020020014B1868704700BF30000020A2
:1026100070B50D4B0D4D5B1B9C100026A64209D1D9
:1026200000F0BCFD0A4D0B4B5B1B9C100026A64224
:1026300005D170BD55F8043B98470136EEE755F8D3
:10264000043B98470136F2E73C3200083C32000870
:102650003C32000840320008704770477047000065
:1026600038B50546002941D051F8043C0C1F002B19
:10267000B8BFE41800F0E8F81D4A136833B9636086
:1026800014602846BDE8384000F0E4B8A34208D9F9
:10269000206821188B4201BF19685B680918216006
:1026A000EDE71A465B680BB1A342FAD911685018DE
:1026B000A0420BD120680144501883421160E0D140
:1026C00018685B68536008441060DAE702D90C238D
:1026D0002B60D6E7206821188B4204BF19685B681D
:1026E000636004BF091821605460CAE738BD00BFA9
:1026F00080020020024B0146186800F025B800BF98
:102700003000002070B50F4E0C463168054611B9F7
:1027100000F034FD30602146284600F02FFD431CB8
:1027200003D14FF0FF34204670BDC41C24F00304D5
:10273000A042F8D0211A284600F020FD0130F2D145
:10274000EFE700BF7C0200202DE9F843CD1C25F007
:10275000030508350C2D38BF0C25002D064601DB7E
:10276000A94204D90C2333600020BDE8F883DFF8C8
:10277000D48000F069F8D8F800301C4644BB2946E4
:102780003046FFF7BFFF431C044658D1D8F800403D
:102790002746002F43D1002C4BD0236839463046C2
:1027A00004EB030900F0EAFC814542D121686D1A6F
:1027B00029463046FFF7A6FF01303AD023682B4464
:1027C0002360D8F800305A6862BBC8F800700FE088
:1027D0002268521B20D40B2A17D96119A342256005
:1027E00018BF5960636808BFC8F8001062514B6099
:1027F000304600F02FF804F10B00231D20F00700F5
:10280000C21A1CBF1B1AA350AFE76268A3420CBFD9
:10281000C8F800205A60EBE723466468AEE73C4600
:102820007F68B6E71A465B68A342FBD1002353607A
:10283000DEE70C233360304600F00CF894E70560C7
:10284000D6E700BF800200200148FFF706BF00BFA7
:10285000780200200148FFF701BF00BF7802002086
:102860009368013B002B10B4936008DA9469A3428B
:1028700001DB0A2903D15DF8044B00F0CABB1368E1
:10288000581C1060197008465DF8044B7047F8B585
:1028900006460F461446D518AC4201D1002007E089
:1028A00014F8011B3A463046FFF7DAFF431CF3D118
:1028B000F8BD00002DE9F0470D469CB014461F46B8
:1028C000064618B1036A0BB9FFF706FD6B6ED90710
:1028D00005D4AB899A0502D4A86DFFF7BEFEAB897B
:1028E0001B0701D52B699BB92946304600F0D0FB68
:1028F00070B16B6EDC0704D54FF0FF301CB0BDE843
:10290000F087AB899805F7D4A86DFFF7A7FEF3E72A
:102910000023099320238DF82930039730236A4F31
:102920008DF82A304FF001082346994613F8012B01
:102930000AB1252AF9D1B9EB040A0BD05346224635
:1029400029463046FFF7A3FF013000F0A480099A22
:102950005244099299F80030002B00F09C8000232B
:102960004FF0FF32CDE9052309F1010904930793E4
:102970008DF853301A934C46534814F8011B052226
:10298000FDF746FC049BD0B9D90644BF20228DF840
:1029900053201A0744BF2B228DF8532099F80020AA
:1029A0002A2A13D0079A4C4600204FF00A0C2146E1
:1029B00011F8013B303B092B49D968B913E0C01B22
:1029C00008FA00F018430490A146D4E7039A111DB9
:1029D00012680391002A01DB079204E0524243F09F
:1029E00002030792049323782E2B0AD163782A2BB3
:1029F00032D1039B1A1D1B68039243EAE37302342E
:102A00000593DFF8D490217803224846FDF700FCB7
:102A100038B1049BA0EB09004022824013430134EB
:102A2000049314F8011B29488DF828100622FDF79D
:102A3000EFFB00283ED0264818BB039B073323F04A
:102A4000070308330393099B034409936CE70CFBCA
:102A500002320C460120AAE70023013405931946EF
:102A60004FF00A0C204610F8012B303A092A03D9FE
:102A7000002BC6D00591C4E70CFB012104460123BD
:102A8000F0E703AB00932A46124B04A93046AFF39C
:102A90000080431CD7D16B6ED90705D4AB899A054A
:102AA00002D4A86DFFF7DAFDAB895B063FF524AFD2
:102AB000099823E703AB00932A46064B04A9304646
:102AC00000F07AF8E5E700BF003200080A3200089B
:102AD000000000008F280008063200082DE9F047AA
:102AE000164698468A680B69DDF820909342B8BF75
:102AF0001346336091F8432007460C460AB1013370
:102B000033602368990642BF336802333360256817
:102B100015F0060506D104F1190AE36832689B1A1C
:102B2000AB4226DC94F843302268003B18BF0123F7
:102B300092062BD404F1430241463846C84701307F
:102B40001ED02368226903F00603042B02BFE56848
:102B50003368ED1AA3680CBF25EAE575002593429A
:102B6000C4BF9B1AED1800261A34B5421AD10020B2
:102B700008E00123524641463846C847013003D198
:102B80004FF0FF30BDE8F0870135C6E7E1185A1C69
:102B9000302081F84300224494F8451082F8431015
:102BA0000233C7E70123224641463846C847013071
:102BB000E6D00136D9E700002DE9F0430D7E85B05F
:102BC000782D90460C9E07460C46994601F143022B
:102BD00007D8622D0AD8002D00F0D780582D00F0BC
:102BE000BC8004F1420684F842503BE0A5F1630347
:102BF000152BF6D801A151F823F000BF552C000881
:102C0000692C0008E32B0008E32B0008E32B0008E5
:102C1000E32B0008692C0008E32B0008E32B0008D5
:102C2000E32B0008E32B0008712D0008932C00080B
:102C3000232D0008E32B0008E32B0008932D000848
:102C4000E32B0008932C0008E32B0008E32B00087B
:102C50002B2D000833681A1D1B68326004F14206F0
:102C600084F842300123A1E033682068191D3160E7
:102C7000060601D51D6803E04506FBD5B3F90050F3
:102C8000002D03DA2D236D4284F843305B480A237C
:102C900011E021683368080653F8045B02D4490642
:102CA00048BFADB23360237E54486F2B5CD10823FC
:102CB000002184F843106668A660002E05DB2168B9
:102CC0002E4321F00401216050D01646B5FBF3F1EC
:102CD00003FB115C10F80CC006F801CDAC4663454F
:102CE0000D46F3D9082B0BD12368DB0708D52369E0
:102CF00061689942DEBF302306F8013C06F1FF36D9
:102D0000921B2261CDF80090434603AA2146384623
:102D1000FFF7E4FE01304ED14FF0FF3005B0BDE8C3
:102D2000F083236843F0200323603548782584F836
:102D300045502368316813F0800F51F8045B03D1CC
:102D400013F0400F18BFADB23160D90744BF43F054
:102D5000200323601DB11023AAE72848E7E7236872
:102D600023F020032360F6E70A23A1E71646B9E71C
:102D7000336825686169181D30602E061B6801D50F
:102D8000196002E06806FBD519800023236116460E
:102D9000B8E733681A1D32601E6862680021304649
:102DA000FDF736FA08B1801B606063682361002379
:102DB00084F84330A6E72369324641463846C8477F
:102DC0000130A9D023689B0713D4E068039B984285
:102DD000B8BF1846A2E70123324641463846C847E5
:102DE000013099D00135E36803995B1AAB42F2DCFC
:102DF000EBE7002504F11906F5E700BF11320008E2
:102E000022320008B1F90C202DE9F04116070546E1
:102E10000C4651D44B68002B02DC0B6C002B49DDB7
:102E2000E66A002E46D0002312F480522F682B60F1
:102E300031D0626DA389590705D56368D21A636BD7
:102E40000BB1236CD21A0023E66A216A2846B047E8
:102E5000421CB4F90C3006D129681D2946D8294AEC
:102E6000CA40D60742D500226260D9042269226096
:102E700004D5421C01D12B6803B96065616B2F60DA
:102E8000C1B104F14403994202D02846FFF7E8FBA0
:102E9000002363630EE0216A01232846B0470246FF
:102EA000501CC7D12B68002BC4D01D2B01D0162B72
:102EB0001AD12F6000201EE00F69002FFAD093076F
:102EC0000E6808BF4B690F6018BF0023A6EB070808
:102ED0008B60B8F1000FEDDD216AA66A43463A46E1
:102EE0002846B047002808DCB4F90C3043F0400312
:102EF000A3814FF0FF30BDE8F0810744A8EB000844
:102F0000E7E700BF0100402038B50B6905460C46D5
:102F100013B90025284638BD18B1036A0BB9FFF76D
:102F2000DBF9B4F90C30002BF3D0626ED00704D477
:102F3000990502D4A06DFFF790FB28462146FFF7C4
:102F400061FF636EDA070546E4D4A3899B05E1D4EB
:102F5000A06DFFF783FBDDE770B50C46B1F90E10ED
:102F6000002996B015461E460ADAA18911F08001A3
:102F700013D14FF48062002031602A6016B070BD1A
:102F80006A4600F0D9F80028EFDB019901F470419E
:102F9000A1F5005359425941EBE700214022EAE7ED
:102FA0008B8973B59E0705460C4607D504F1470388
:102FB000236023610123636102B070BD01AB6A46E7
:102FC000FFF7CAFF009E28463146FFF7BDFBB4F964
:102FD0000C3038B99A05EFD423F0030343F0020311
:102FE000A381E3E743F08003A381019B2060C4E950
:102FF0000406002BE0D0B4F90E10284600F0AEF81D
:103000000028D9D0A38923F0030343F00103A3814F
:10301000D2E7F8B50E461446054618B1036A0BB957
:10302000FFF75AF9A369A360A3891A0701D5236999
:1030300043B92146284600F02BF818B14FF0FF376E
:103040003846F8BD23682269981A6369F6B283424C
:10305000374605DC21462846FFF756FF0028EDD10C
:10306000A368013BA36023685A1C22601E7062693A
:10307000431C9A4204D0A389DB07E1D50A2EDFD195
:1030800021462846FFF740FF0028D9D0D6E70000A8
:1030900038B5284B054618680C4618B1036A0BB9B9
:1030A000FFF71AF9B4F90C301A0721D4D80607D45F
:1030B00009222A6043F04003A3814FF0FF3030E043
:1030C000590712D5616B41B104F14403994202D012
:1030D0002846FFF7C5FA002363630022B4F90C30D9
:1030E00062602269226023F0240343F00803A38175
:1030F00022693AB99A0501D5180603D52146284612
:10310000FFF74EFFB4F90C3013F001020AD0002291
:10311000A26062695242A261226942B913F0800042
:10312000C8D138BD990758BF6269A260F4E7002092
:10313000F7E700BF3000002038B5074D00230446F4
:10314000084611462B60FEF70CFC431C02D12B688D
:1031500003B1236038BD00BF7402002038B5064DAE
:103160000023044608462B60FEF700FC431C02D1F6
:103170002B6803B1236038BD7402002038B5064DBA
:103180000023044608462B60FEF7B4FB431C02D123
:103190002B6803B1236038BD74020020F8B500BF6E
:1031A000F8BC08BC9E467047F8B500BFF8BC08BC28
:0431B0009E46704780
:1031B4004D2564206E6F20646174610A0000000074
:1031C4004D256420616E676C653A256420737065D3
:1031D40065643A25642063757272656E743A256479
:1031E4000A000000000000000102030400000000C7
:1031F400000000000102030406070809232D302BF8
:103204002000686C4C0065666745464700303132E3
:10321400333435363738394142434445460030313A
:103224003233343536373839616263646566000099
:08323400DCCFFF7F0100000068
:04323C00F501000890
:04324000D1010008B0
:103244000002000000000000000000000000000078
:103254000800000000000000010000001000000051
:103264000024F400000000000300000038010020E6
:10327400340000200000000038010020A0010020DC
:103284000802002000000000000000000000000010
:10329400000000000000000000000000000000002A
:1032A400000000000000000000000000000000001A
:1032B400000000000000000000000000000000000A
:040000050800216965
:00000001FF
